{
  "contractName": "PersusProtocol",
  "abi": [
    {
      "inputs": [
        {
          "internalType": "contract StreetCreditToken",
          "name": "_streetCreditToken",
          "type": "address"
        },
        {
          "internalType": "contract DaiToken",
          "name": "_daiToken",
          "type": "address"
        }
      ],
      "stateMutability": "nonpayable",
      "type": "constructor"
    },
    {
      "anonymous": false,
      "inputs": [
        {
          "indexed": false,
          "internalType": "address",
          "name": "account",
          "type": "address"
        },
        {
          "indexed": false,
          "internalType": "address",
          "name": "token",
          "type": "address"
        },
        {
          "indexed": false,
          "internalType": "uint256",
          "name": "amount",
          "type": "uint256"
        },
        {
          "indexed": false,
          "internalType": "uint256",
          "name": "rate",
          "type": "uint256"
        }
      ],
      "name": "TokenPurchased",
      "type": "event"
    },
    {
      "inputs": [],
      "name": "daiToken",
      "outputs": [
        {
          "internalType": "contract DaiToken",
          "name": "",
          "type": "address"
        }
      ],
      "stateMutability": "view",
      "type": "function",
      "constant": true
    },
    {
      "inputs": [
        {
          "internalType": "address",
          "name": "",
          "type": "address"
        }
      ],
      "name": "hasStaked",
      "outputs": [
        {
          "internalType": "bool",
          "name": "",
          "type": "bool"
        }
      ],
      "stateMutability": "view",
      "type": "function",
      "constant": true
    },
    {
      "inputs": [
        {
          "internalType": "address",
          "name": "",
          "type": "address"
        }
      ],
      "name": "isStaking",
      "outputs": [
        {
          "internalType": "bool",
          "name": "",
          "type": "bool"
        }
      ],
      "stateMutability": "view",
      "type": "function",
      "constant": true
    },
    {
      "inputs": [],
      "name": "name",
      "outputs": [
        {
          "internalType": "string",
          "name": "",
          "type": "string"
        }
      ],
      "stateMutability": "view",
      "type": "function",
      "constant": true
    },
    {
      "inputs": [],
      "name": "owner",
      "outputs": [
        {
          "internalType": "address",
          "name": "",
          "type": "address"
        }
      ],
      "stateMutability": "view",
      "type": "function",
      "constant": true
    },
    {
      "inputs": [],
      "name": "rate",
      "outputs": [
        {
          "internalType": "uint256",
          "name": "",
          "type": "uint256"
        }
      ],
      "stateMutability": "view",
      "type": "function",
      "constant": true
    },
    {
      "inputs": [
        {
          "internalType": "uint256",
          "name": "",
          "type": "uint256"
        }
      ],
      "name": "stakers",
      "outputs": [
        {
          "internalType": "address",
          "name": "",
          "type": "address"
        }
      ],
      "stateMutability": "view",
      "type": "function",
      "constant": true
    },
    {
      "inputs": [
        {
          "internalType": "address",
          "name": "",
          "type": "address"
        }
      ],
      "name": "stakingBalance",
      "outputs": [
        {
          "internalType": "uint256",
          "name": "",
          "type": "uint256"
        }
      ],
      "stateMutability": "view",
      "type": "function",
      "constant": true
    },
    {
      "inputs": [],
      "name": "streetCreditToken",
      "outputs": [
        {
          "internalType": "contract StreetCreditToken",
          "name": "",
          "type": "address"
        }
      ],
      "stateMutability": "view",
      "type": "function",
      "constant": true
    },
    {
      "inputs": [],
      "name": "buyTokens",
      "outputs": [],
      "stateMutability": "payable",
      "type": "function",
      "payable": true
    },
    {
      "inputs": [
        {
          "internalType": "uint256",
          "name": "_amount",
          "type": "uint256"
        }
      ],
      "name": "stakeTokens",
      "outputs": [],
      "stateMutability": "nonpayable",
      "type": "function"
    },
    {
      "inputs": [],
      "name": "issueTokens",
      "outputs": [],
      "stateMutability": "nonpayable",
      "type": "function"
    },
    {
      "inputs": [
        {
          "internalType": "uint256",
          "name": "_amount",
          "type": "uint256"
        }
      ],
      "name": "unstakeTokens",
      "outputs": [],
      "stateMutability": "nonpayable",
      "type": "function"
    }
  ],
  "bytecode": "0x60806040526040518060400160405280600f81526020017f5065727375732050726f746f636f6c0000000000000000000000000000000000815250600090805190602001906200005192919062000170565b5060646002553480156200006457600080fd5b50604051620013b5380380620013b5833981810160405260408110156200008a57600080fd5b81019080805190602001909291908051906020019092919050505081600360006101000a81548173ffffffffffffffffffffffffffffffffffffffff021916908373ffffffffffffffffffffffffffffffffffffffff16021790555080600460006101000a81548173ffffffffffffffffffffffffffffffffffffffff021916908373ffffffffffffffffffffffffffffffffffffffff16021790555033600160006101000a81548173ffffffffffffffffffffffffffffffffffffffff021916908373ffffffffffffffffffffffffffffffffffffffff16021790555050506200021f565b828054600181600116156101000203166002900490600052602060002090601f016020900481019282601f10620001b357805160ff1916838001178555620001e4565b82800160010185558215620001e4579182015b82811115620001e3578251825591602001919060010190620001c6565b5b509050620001f39190620001f7565b5090565b6200021c91905b8082111562000218576000816000905550600101620001fe565b5090565b90565b611186806200022f6000396000f3fe6080604052600436106100c25760003560e01c80637547c7a31161007f578063c93c8f3411610059578063c93c8f341461038b578063d0febe4c146103f4578063f553f22a146103fe578063fd5e6dd114610455576100c2565b80637547c7a3146102a25780638da5cb5b146102dd578063be22f54614610334576100c2565b806306fdde03146100c75780632c4e722e1461015757806345bc78ab14610182578063608e4dd0146101e757806360ab5852146102225780636f49712b14610239575b600080fd5b3480156100d357600080fd5b506100dc6104d0565b6040518080602001828103825283818151815260200191508051906020019080838360005b8381101561011c578082015181840152602081019050610101565b50505050905090810190601f1680156101495780820380516001836020036101000a031916815260200191505b509250505060405180910390f35b34801561016357600080fd5b5061016c61056e565b6040518082815260200191505060405180910390f35b34801561018e57600080fd5b506101d1600480360360208110156101a557600080fd5b81019080803573ffffffffffffffffffffffffffffffffffffffff169060200190929190505050610574565b6040518082815260200191505060405180910390f35b3480156101f357600080fd5b506102206004803603602081101561020a57600080fd5b810190808035906020019092919050505061058c565b005b34801561022e57600080fd5b5061023761090b565b005b34801561024557600080fd5b506102886004803603602081101561025c57600080fd5b81019080803573ffffffffffffffffffffffffffffffffffffffff169060200190929190505050610b62565b604051808215151515815260200191505060405180910390f35b3480156102ae57600080fd5b506102db600480360360208110156102c557600080fd5b8101908080359060200190929190505050610b82565b005b3480156102e957600080fd5b506102f2610ec6565b604051808273ffffffffffffffffffffffffffffffffffffffff1673ffffffffffffffffffffffffffffffffffffffff16815260200191505060405180910390f35b34801561034057600080fd5b50610349610eec565b604051808273ffffffffffffffffffffffffffffffffffffffff1673ffffffffffffffffffffffffffffffffffffffff16815260200191505060405180910390f35b34801561039757600080fd5b506103da600480360360208110156103ae57600080fd5b81019080803573ffffffffffffffffffffffffffffffffffffffff169060200190929190505050610f12565b604051808215151515815260200191505060405180910390f35b6103fc610f32565b005b34801561040a57600080fd5b506104136110ee565b604051808273ffffffffffffffffffffffffffffffffffffffff1673ffffffffffffffffffffffffffffffffffffffff16815260200191505060405180910390f35b34801561046157600080fd5b5061048e6004803603602081101561047857600080fd5b8101908080359060200190929190505050611114565b604051808273ffffffffffffffffffffffffffffffffffffffff1673ffffffffffffffffffffffffffffffffffffffff16815260200191505060405180910390f35b60008054600181600116156101000203166002900480601f0160208091040260200160405190810160405280929190818152602001828054600181600116156101000203166002900480156105665780601f1061053b57610100808354040283529160200191610566565b820191906000526020600020905b81548152906001019060200180831161054957829003601f168201915b505050505081565b60025481565b60066020528060005260406000206000915090505481565b6000600660003373ffffffffffffffffffffffffffffffffffffffff1673ffffffffffffffffffffffffffffffffffffffff16815260200190815260200160002054905060008211610646576040517f08c379a00000000000000000000000000000000000000000000000000000000081526004018080602001828103825260128152602001807f416d6f756e742063616e6e6f742062652030000000000000000000000000000081525060200191505060405180910390fd5b600081116106bc576040517f08c379a00000000000000000000000000000000000000000000000000000000081526004018080602001828103825260158152602001807f4e6f742063757272656e746c79207374616b696e67000000000000000000000081525060200191505060405180910390fd5b60008282031015610735576040517f08c379a00000000000000000000000000000000000000000000000000000000081526004018080602001828103825260148152602001807f496e73756666696369656e742062616c616e636500000000000000000000000081525060200191505060405180910390fd5b600460009054906101000a900473ffffffffffffffffffffffffffffffffffffffff1673ffffffffffffffffffffffffffffffffffffffff1663a9059cbb33846040518363ffffffff1660e01b8152600401808373ffffffffffffffffffffffffffffffffffffffff1673ffffffffffffffffffffffffffffffffffffffff16815260200182815260200192505050602060405180830381600087803b1580156107de57600080fd5b505af11580156107f2573d6000803e3d6000fd5b505050506040513d602081101561080857600080fd5b81019080805190602001909291905050505081600660003373ffffffffffffffffffffffffffffffffffffffff1673ffffffffffffffffffffffffffffffffffffffff168152602001908152602001600020600082825403925050819055506000600660003373ffffffffffffffffffffffffffffffffffffffff1673ffffffffffffffffffffffffffffffffffffffff1681526020019081526020016000205411610907576000600860003373ffffffffffffffffffffffffffffffffffffffff1673ffffffffffffffffffffffffffffffffffffffff16815260200190815260200160002060006101000a81548160ff0219169083151502179055505b5050565b600160009054906101000a900473ffffffffffffffffffffffffffffffffffffffff1673ffffffffffffffffffffffffffffffffffffffff163373ffffffffffffffffffffffffffffffffffffffff16146109ce576040517f08c379a00000000000000000000000000000000000000000000000000000000081526004018080602001828103825260178152602001807f43616c6c6572206973206e6f7420746865206f776e657200000000000000000081525060200191505060405180910390fd5b60008090505b600580549050811015610b5f576000600582815481106109f057fe5b9060005260206000200160009054906101000a900473ffffffffffffffffffffffffffffffffffffffff1690506000600660008373ffffffffffffffffffffffffffffffffffffffff1673ffffffffffffffffffffffffffffffffffffffff1681526020019081526020016000205490506000811115610b5057600360009054906101000a900473ffffffffffffffffffffffffffffffffffffffff1673ffffffffffffffffffffffffffffffffffffffff1663a9059cbb83836040518363ffffffff1660e01b8152600401808373ffffffffffffffffffffffffffffffffffffffff1673ffffffffffffffffffffffffffffffffffffffff16815260200182815260200192505050602060405180830381600087803b158015610b1357600080fd5b505af1158015610b27573d6000803e3d6000fd5b505050506040513d6020811015610b3d57600080fd5b8101908080519060200190929190505050505b505080806001019150506109d4565b50565b60086020528060005260406000206000915054906101000a900460ff1681565b60008111610bf8576040517f08c379a00000000000000000000000000000000000000000000000000000000081526004018080602001828103825260128152602001807f416d6f756e742063616e6e6f742062652030000000000000000000000000000081525060200191505060405180910390fd5b600460009054906101000a900473ffffffffffffffffffffffffffffffffffffffff1673ffffffffffffffffffffffffffffffffffffffff166323b872dd3330846040518463ffffffff1660e01b8152600401808473ffffffffffffffffffffffffffffffffffffffff1673ffffffffffffffffffffffffffffffffffffffff1681526020018373ffffffffffffffffffffffffffffffffffffffff1673ffffffffffffffffffffffffffffffffffffffff1681526020018281526020019350505050602060405180830381600087803b158015610cd557600080fd5b505af1158015610ce9573d6000803e3d6000fd5b505050506040513d6020811015610cff57600080fd5b81019080805190602001909291905050505080600660003373ffffffffffffffffffffffffffffffffffffffff1673ffffffffffffffffffffffffffffffffffffffff16815260200190815260200160002060008282540192505081905550600760003373ffffffffffffffffffffffffffffffffffffffff1673ffffffffffffffffffffffffffffffffffffffff16815260200190815260200160002060009054906101000a900460ff16610e13576005339080600181540180825580915050600190039060005260206000200160009091909190916101000a81548173ffffffffffffffffffffffffffffffffffffffff021916908373ffffffffffffffffffffffffffffffffffffffff1602179055505b6001600760003373ffffffffffffffffffffffffffffffffffffffff1673ffffffffffffffffffffffffffffffffffffffff16815260200190815260200160002060006101000a81548160ff0219169083151502179055506001600860003373ffffffffffffffffffffffffffffffffffffffff1673ffffffffffffffffffffffffffffffffffffffff16815260200190815260200160002060006101000a81548160ff02191690831515021790555050565b600160009054906101000a900473ffffffffffffffffffffffffffffffffffffffff1681565b600460009054906101000a900473ffffffffffffffffffffffffffffffffffffffff1681565b60076020528060005260406000206000915054906101000a900460ff1681565b600060025434029050600360009054906101000a900473ffffffffffffffffffffffffffffffffffffffff1673ffffffffffffffffffffffffffffffffffffffff1663a9059cbb33836040518363ffffffff1660e01b8152600401808373ffffffffffffffffffffffffffffffffffffffff1673ffffffffffffffffffffffffffffffffffffffff16815260200182815260200192505050602060405180830381600087803b158015610fe457600080fd5b505af1158015610ff8573d6000803e3d6000fd5b505050506040513d602081101561100e57600080fd5b8101908080519060200190929190505050507f8daf503382665d950e449b86172be5222275c90f4ddf69c29fdaa8237a562a6d33600360009054906101000a900473ffffffffffffffffffffffffffffffffffffffff1683600254604051808573ffffffffffffffffffffffffffffffffffffffff1673ffffffffffffffffffffffffffffffffffffffff1681526020018473ffffffffffffffffffffffffffffffffffffffff1673ffffffffffffffffffffffffffffffffffffffff16815260200183815260200182815260200194505050505060405180910390a150565b600360009054906101000a900473ffffffffffffffffffffffffffffffffffffffff1681565b6005818154811061112157fe5b906000526020600020016000915054906101000a900473ffffffffffffffffffffffffffffffffffffffff168156fea264697066735822122006741e5a435ddca0f9d7bc1fa06e303d5c2f928e3267e6bb460b79182f359a0c64736f6c63430006060033",
  "immutableReferences": {},
  "source": "// SPDX-License-Identifier: MIT\r\n\r\npragma solidity ^0.6.6;\r\n\r\nimport \"./StreetCreditToken.sol\";\r\nimport \"./DaiToken.sol\";\r\n\r\ncontract PersusProtocol {\r\n    string public name = \"Persus Protocol\";\r\n    address public owner;\r\n\r\n    uint public rate = 100;\r\n\r\n    StreetCreditToken public streetCreditToken;\r\n    DaiToken public daiToken;\r\n\r\n    address[] public stakers;\r\n    mapping(address => uint) public stakingBalance;\r\n    mapping(address => bool) public hasStaked;\r\n    mapping(address => bool) public isStaking;\r\n\r\n    event TokenPurchased(\r\n        address account,\r\n        address token,\r\n        uint amount,\r\n        uint rate\r\n    );\r\n\r\n    constructor(StreetCreditToken _streetCreditToken, DaiToken _daiToken) public {\r\n        streetCreditToken = _streetCreditToken;\r\n        daiToken = _daiToken;\r\n        owner = msg.sender;\r\n    }\r\n\r\n    function buyTokens() public payable {\r\n        // calcaulate number of tokens to buy\r\n        uint streetCreditTokenAmount = msg.value * rate;\r\n        streetCreditToken.transfer(msg.sender, streetCreditTokenAmount);\r\n\r\n        // emit an event\r\n        emit TokenPurchased(msg.sender, address(streetCreditToken), streetCreditTokenAmount, rate);\r\n    }\r\n\r\n    \r\n    function stakeTokens(uint _amount) public {\r\n        require(_amount > 0, \"Amount cannot be 0\");\r\n        daiToken.transferFrom(msg.sender, address(this), _amount);\r\n        stakingBalance[msg.sender]+= _amount;\r\n        if(!hasStaked[msg.sender]) {\r\n            stakers.push(msg.sender);\r\n        }\r\n        hasStaked[msg.sender] = true;\r\n        isStaking[msg.sender] = true;\r\n    }\r\n\r\n    function issueTokens() public {\r\n        require(msg.sender == owner, \"Caller is not the owner\");\r\n        for (uint i = 0; i < stakers.length; i++) {\r\n            address staker = stakers[i];\r\n            uint balance = stakingBalance[staker];\r\n            if(balance > 0) {\r\n                streetCreditToken.transfer(staker, balance);\r\n            }\r\n        }\r\n    }\r\n\r\n    function unstakeTokens(uint _amount) public {\r\n        uint balance = stakingBalance[msg.sender];\r\n        require(_amount > 0, \"Amount cannot be 0\");\r\n        require(balance > 0, \"Not currently staking\");\r\n        require(balance - _amount >= 0, \"Insufficient balance\");\r\n        daiToken.transfer(msg.sender, _amount);\r\n        stakingBalance[msg.sender] -= _amount;\r\n        if(stakingBalance[msg.sender] <= 0) {\r\n            isStaking[msg.sender] = false;\r\n        }\r\n    }\r\n\r\n}",
  "sourcePath": "C:/crypto/developer/persus-protocol/src/contracts/PersusProtocol.sol",
  "compiler": {
    "name": "solc",
    "version": "0.6.6+commit.6c089d02.Emscripten.clang"
  },
  "schemaVersion": "3.4.1",
  "updatedAt": "2022-02-26T14:49:08.666Z",
  "networkType": "ethereum",
  "devdoc": {
    "methods": {}
  },
  "userdoc": {
    "methods": {}
  }
}